{
  "abi": [
    {
      "inputs": [
        {
          "internalType": "address",
          "name": "_strategist",
          "type": "address"
        },
        {
          "internalType": "uint256",
          "name": "_releaseTime",
          "type": "uint256"
        }
      ],
      "stateMutability": "nonpayable",
      "type": "constructor"
    },
    {
      "anonymous": false,
      "inputs": [
        {
          "indexed": false,
          "internalType": "address",
          "name": "escrowAddress",
          "type": "address"
        },
        {
          "indexed": false,
          "internalType": "address",
          "name": "strategist",
          "type": "address"
        },
        {
          "indexed": false,
          "internalType": "uint256",
          "name": "releaseTime",
          "type": "uint256"
        }
      ],
      "name": "EscrowSetup",
      "type": "event"
    },
    {
      "anonymous": false,
      "inputs": [
        {
          "indexed": false,
          "internalType": "address",
          "name": "token",
          "type": "address"
        },
        {
          "indexed": false,
          "internalType": "uint256",
          "name": "amount",
          "type": "uint256"
        },
        {
          "indexed": false,
          "internalType": "address",
          "name": "target",
          "type": "address"
        }
      ],
      "name": "Swept",
      "type": "event"
    },
    {
      "inputs": [],
      "name": "acceptStrategist",
      "outputs": [],
      "stateMutability": "nonpayable",
      "type": "function"
    },
    {
      "inputs": [],
      "name": "acceptYchad",
      "outputs": [],
      "stateMutability": "nonpayable",
      "type": "function"
    },
    {
      "inputs": [
        {
          "internalType": "uint256",
          "name": "_newReleaseTime",
          "type": "uint256"
        }
      ],
      "name": "changeReleaseTime",
      "outputs": [],
      "stateMutability": "nonpayable",
      "type": "function"
    },
    {
      "inputs": [
        {
          "internalType": "address",
          "name": "_newStrategist",
          "type": "address"
        }
      ],
      "name": "changeStrategist",
      "outputs": [],
      "stateMutability": "nonpayable",
      "type": "function"
    },
    {
      "inputs": [
        {
          "internalType": "address",
          "name": "_newYchad",
          "type": "address"
        }
      ],
      "name": "changeYchad",
      "outputs": [],
      "stateMutability": "nonpayable",
      "type": "function"
    },
    {
      "inputs": [
        {
          "internalType": "address",
          "name": "_strategist",
          "type": "address"
        },
        {
          "internalType": "uint256",
          "name": "_releaseTime",
          "type": "uint256"
        }
      ],
      "name": "cloneEscrow",
      "outputs": [
        {
          "internalType": "address",
          "name": "newEscrow",
          "type": "address"
        }
      ],
      "stateMutability": "nonpayable",
      "type": "function"
    },
    {
      "inputs": [
        {
          "internalType": "address",
          "name": "_strategist",
          "type": "address"
        },
        {
          "internalType": "uint256",
          "name": "_releaseTime",
          "type": "uint256"
        }
      ],
      "name": "initialize",
      "outputs": [],
      "stateMutability": "nonpayable",
      "type": "function"
    },
    {
      "inputs": [
        {
          "internalType": "address",
          "name": "target",
          "type": "address"
        }
      ],
      "name": "migrate",
      "outputs": [],
      "stateMutability": "nonpayable",
      "type": "function"
    },
    {
      "inputs": [],
      "name": "migrateTargetStrategist",
      "outputs": [
        {
          "internalType": "address",
          "name": "",
          "type": "address"
        }
      ],
      "stateMutability": "view",
      "type": "function"
    },
    {
      "inputs": [],
      "name": "migrateTargetYchad",
      "outputs": [
        {
          "internalType": "address",
          "name": "",
          "type": "address"
        }
      ],
      "stateMutability": "view",
      "type": "function"
    },
    {
      "inputs": [],
      "name": "pendingStrategist",
      "outputs": [
        {
          "internalType": "address",
          "name": "",
          "type": "address"
        }
      ],
      "stateMutability": "view",
      "type": "function"
    },
    {
      "inputs": [],
      "name": "pendingYchad",
      "outputs": [
        {
          "internalType": "address",
          "name": "",
          "type": "address"
        }
      ],
      "stateMutability": "view",
      "type": "function"
    },
    {
      "inputs": [],
      "name": "strategist",
      "outputs": [
        {
          "internalType": "address",
          "name": "",
          "type": "address"
        }
      ],
      "stateMutability": "view",
      "type": "function"
    },
    {
      "inputs": [
        {
          "internalType": "address",
          "name": "_token",
          "type": "address"
        },
        {
          "internalType": "uint256",
          "name": "_amount",
          "type": "uint256"
        },
        {
          "internalType": "address",
          "name": "_target",
          "type": "address"
        }
      ],
      "name": "sweep",
      "outputs": [],
      "stateMutability": "nonpayable",
      "type": "function"
    },
    {
      "inputs": [
        {
          "internalType": "address",
          "name": "_token",
          "type": "address"
        },
        {
          "internalType": "uint256",
          "name": "_amount",
          "type": "uint256"
        },
        {
          "internalType": "address",
          "name": "_target",
          "type": "address"
        }
      ],
      "name": "sweepFromDeadStrategist",
      "outputs": [],
      "stateMutability": "nonpayable",
      "type": "function"
    },
    {
      "inputs": [],
      "name": "ychad",
      "outputs": [
        {
          "internalType": "address",
          "name": "",
          "type": "address"
        }
      ],
      "stateMutability": "view",
      "type": "function"
    },
    {
      "inputs": [],
      "name": "yfi",
      "outputs": [
        {
          "internalType": "contract IERC20",
          "name": "",
          "type": "address"
        }
      ],
      "stateMutability": "view",
      "type": "function"
    }
  ],
  "bytecode": "60806040526000805460ff1916600117905534801561001d57600080fd5b506040516111453803806111458339818101604052604081101561004057600080fd5b508051602090910151610053828261005a565b505061021d565b600654156100af576040805162461bcd60e51b815260206004820152601360248201527f616c726561647920496e697469616c6973656400000000000000000000000000604482015290519081900360640190fd5b600180546001600160a01b0319166001600160a01b0384161790556100fc62278d006100ea42630784ce006101bc602090811b61099217901c565b6101bc60201b6109921790919060201c565b811115610145576040805162461bcd60e51b81526020600482015260126024820152715f72656c6561736554696d65203e2034793160701b604482015290519081900360640190fd5b6006819055600280546001600160a01b03191673feb4acf3df3cdea7399794d0869ef76a6efaff52179055604080513081526001600160a01b038416602082015280820183905290517fcd6dc6798cc50eed3152aebd1c00d3ae488e28b6ce7ca31a2caf24eec72c692e9181900360600190a15050565b600082820183811015610216576040805162461bcd60e51b815260206004820152601b60248201527f536166654d6174683a206164646974696f6e206f766572666c6f770000000000604482015290519081900360640190fd5b9392505050565b610f198061022c6000396000f3fe608060405234801561001057600080fd5b506004361061010b5760003560e01c806397db285f116100a2578063ce5494bb11610071578063ce5494bb14610227578063d440db861461024d578063dc2c256f14610283578063dfcc9a6f146102b9578063e310fa5d146102c15761010b565b806397db285f146101e3578063c3de0cc4146101eb578063c3f45387146101f3578063cd6dc687146101fb5761010b565b80633a7481fa116100de5780633a7481fa1461018757806372eb05b91461018f5780637922eef8146101b557806389cc75be146101bd5761010b565b8063016ac262146101105780631bb7ab18146101345780631fe4a686146101605780632e0f2ce114610168575b600080fd5b6101186102c9565b604080516001600160a01b039092168252519081900360200190f35b6101186004803603604081101561014a57600080fd5b506001600160a01b0381351690602001356102d8565b6101186103a8565b6101856004803603602081101561017e57600080fd5b50356103bc565b005b61018561046f565b610185600480360360208110156101a557600080fd5b50356001600160a01b03166104aa565b610118610536565b610185600480360360208110156101d357600080fd5b50356001600160a01b0316610545565b61011861057e565b61011861058d565b61018561059c565b6101856004803603604081101561021157600080fd5b506001600160a01b0381351690602001356105de565b6101856004803603602081101561023d57600080fd5b50356001600160a01b031661071f565b6101856004803603606081101561026357600080fd5b506001600160a01b038135811691602081013591604090910135166107ba565b6101856004803603606081101561029957600080fd5b506001600160a01b03813581169160208101359160409091013516610873565b61011861096b565b61011861097a565b6005546001600160a01b031681565b6000805460ff166102e857600080fd5b604051733d602d80600a3d3981f3363d3d373d3d3d363d7360601b81523060601b601482018190526e5af43d82803e903d91602b57fd5bf360881b6028830152906037816000f0925050816001600160a01b031663cd6dc68785856040518363ffffffff1660e01b815260040180836001600160a01b0316815260200182815260200192505050600060405180830381600087803b15801561038957600080fd5b505af115801561039d573d6000803e3d6000fd5b505050505092915050565b60005461010090046001600160a01b031681565b6002546001600160a01b031633146103d357600080fd5b42811161041b576040805162461bcd60e51b81526020600482015260116024820152706d75737420626520696e2066757475726560781b604482015290519081900360640190fd5b600654811061046a576040805162461bcd60e51b81526020600482015260166024820152751b5d5cdd08189948185b881a5b5c1c9bdd995b595b9d60521b604482015290519081900360640190fd5b600655565b6003546001600160a01b0316331461048657600080fd5b600354600280546001600160a01b0319166001600160a01b03909216919091179055565b60005461010090046001600160a01b031633146104c657600080fd5b6001600160a01b038116610514576040805162461bcd60e51b815260206004820152601060248201526f63616e742073657420746f207a65726f60801b604482015290519081900360640190fd5b600180546001600160a01b0319166001600160a01b0392909216919091179055565b6004546001600160a01b031681565b6002546001600160a01b0316331461055c57600080fd5b600380546001600160a01b0319166001600160a01b0392909216919091179055565b6002546001600160a01b031681565b6001546001600160a01b031681565b6001546001600160a01b031633146105b357600080fd5b600154600080546001600160a01b0390921661010002610100600160a81b0319909216919091179055565b60065415610629576040805162461bcd60e51b8152602060048201526013602482015272185b1c9958591e48125b9a5d1a585b1a5cd959606a1b604482015290519081900360640190fd5b600180546001600160a01b0319166001600160a01b03841617905561065f62278d0061065942630784ce00610992565b90610992565b8111156106a8576040805162461bcd60e51b81526020600482015260126024820152715f72656c6561736554696d65203e2034793160701b604482015290519081900360640190fd5b6006819055600280546001600160a01b03191673feb4acf3df3cdea7399794d0869ef76a6efaff52179055604080513081526001600160a01b038416602082015280820183905290517fcd6dc6798cc50eed3152aebd1c00d3ae488e28b6ce7ca31a2caf24eec72c692e9181900360600190a15050565b6002546001600160a01b031633141561076b57600580546001600160a01b0319166001600160a01b03838116918217909255600454909116141561076657610766816109f3565b6107b7565b60005461010090046001600160a01b03163314156107b757600480546001600160a01b0319166001600160a01b0383811691821790925560055490911614156107b7576107b7816109f3565b50565b6002546001600160a01b03163314610806576040805162461bcd60e51b815260206004820152600a6024820152697963686164206f6e6c7960b01b604482015290519081900360640190fd5b600654429061081990630784ce00610992565b1015610863576040805162461bcd60e51b815260206004820152601460248201527332b9b1b937bb9015901a3c903737ba1037bb32b960611b604482015290519081900360640190fd5b61086e838383610b67565b505050565b60005461010090046001600160a01b03163314806108b4575060005461010090046001600160a01b03161580156108b457506002546001600160a01b031633145b6108f7576040805162461bcd60e51b815260206004820152600f60248201526e1bdb9b1e481cdd1c985d1959da5cdd608a1b604482015290519081900360640190fd5b6001600160a01b038316730bc529c00c6401aef6d220be8c6ea1667f6ad93e1415610863574260065410610863576040805162461bcd60e51b815260206004820152601660248201527532b9b1b937bb903832b934b7b2103737ba1037bb32b960511b604482015290519081900360640190fd5b6003546001600160a01b031681565b730bc529c00c6401aef6d220be8c6ea1667f6ad93e81565b6000828201838110156109ec576040805162461bcd60e51b815260206004820152601b60248201527f536166654d6174683a206164646974696f6e206f766572666c6f770000000000604482015290519081900360640190fd5b9392505050565b604080516370a0823160e01b81523060048201529051600091730bc529c00c6401aef6d220be8c6ea1667f6ad93e916370a0823191602480820192602092909190829003018186803b158015610a4857600080fd5b505afa158015610a5c573d6000803e3d6000fd5b505050506040513d6020811015610a7257600080fd5b50516040805163a9059cbb60e01b81526001600160a01b0385166004820152602481018390529051919250730bc529c00c6401aef6d220be8c6ea1667f6ad93e9163a9059cbb916044808201926020929091908290030181600087803b158015610adb57600080fd5b505af1158015610aef573d6000803e3d6000fd5b505050506040513d6020811015610b0557600080fd5b505060408051730bc529c00c6401aef6d220be8c6ea1667f6ad93e8152602081018390526001600160a01b0384168183015290517fbb3f74f3539ea7725781ff6810125a75c183f5c944318fc94873d1324f0482ae9181900360600190a15050565b604080516001600160a01b0380861682526020820185905283168183015290517fbb3f74f3539ea7725781ff6810125a75c183f5c944318fc94873d1324f0482ae9181900360600190a161086e6001600160a01b0384168284604080516001600160a01b038416602482015260448082018490528251808303909101815260649091019091526020810180516001600160e01b031663a9059cbb60e01b17905261086e9084906060610c62826040518060400160405280602081526020017f5361666545524332303a206c6f772d6c6576656c2063616c6c206661696c6564815250856001600160a01b0316610cbe9092919063ffffffff16565b80519091501561086e57808060200190516020811015610c8157600080fd5b505161086e5760405162461bcd60e51b815260040180806020018281038252602a815260200180610eba602a913960400191505060405180910390fd5b6060610ccd8484600085610cd5565b949350505050565b6060610ce085610e80565b610d31576040805162461bcd60e51b815260206004820152601d60248201527f416464726573733a2063616c6c20746f206e6f6e2d636f6e7472616374000000604482015290519081900360640190fd5b60006060866001600160a01b031685876040518082805190602001908083835b60208310610d705780518252601f199092019160209182019101610d51565b6001836020036101000a03801982511681845116808217855250505050505090500191505060006040518083038185875af1925050503d8060008114610dd2576040519150601f19603f3d011682016040523d82523d6000602084013e610dd7565b606091505b50915091508115610deb579150610ccd9050565b805115610dfb5780518082602001fd5b8360405162461bcd60e51b81526004018080602001828103825283818151815260200191508051906020019080838360005b83811015610e45578181015183820152602001610e2d565b50505050905090810190601f168015610e725780820380516001836020036101000a031916815260200191505b509250505060405180910390fd5b6000813f7fc5d2460186f7233c927e7db2dcc703c0e500b653ca82273b7bfad8045d85a470818114801590610ccd57505015159291505056fe5361666545524332303a204552433230206f7065726174696f6e20646964206e6f742073756363656564a2646970667358221220d40565b6e327e58922cd5562df4055b78db9ed468e7057fea4af19dc0187444d64736f6c634300060c0033",
  "bytecodeSha1": "78865a0a583d3e9b2dfe2cf10947520305dc6a1a",
  "compiler": {
    "evm_version": "istanbul",
    "optimizer": {
      "enabled": true,
      "runs": 200
    },
    "version": "0.6.12+commit.27d51765"
  },
  "contractName": "StrategistEscrow",
  "language": "Solidity",
  "natspec": {
    "kind": "dev",
    "methods": {},
    "version": 1
  },
  "opcodes": "PUSH1 0x80 PUSH1 0x40 MSTORE CALLVALUE DUP1 ISZERO PUSH2 0x10 JUMPI PUSH1 0x0 DUP1 REVERT JUMPDEST POP PUSH1 0x4 CALLDATASIZE LT PUSH2 0x10B JUMPI PUSH1 0x0 CALLDATALOAD PUSH1 0xE0 SHR DUP1 PUSH4 0x97DB285F GT PUSH2 0xA2 JUMPI DUP1 PUSH4 0xCE5494BB GT PUSH2 0x71 JUMPI DUP1 PUSH4 0xCE5494BB EQ PUSH2 0x227 JUMPI DUP1 PUSH4 0xD440DB86 EQ PUSH2 0x24D JUMPI DUP1 PUSH4 0xDC2C256F EQ PUSH2 0x283 JUMPI DUP1 PUSH4 0xDFCC9A6F EQ PUSH2 0x2B9 JUMPI DUP1 PUSH4 0xE310FA5D EQ PUSH2 0x2C1 JUMPI PUSH2 0x10B JUMP JUMPDEST DUP1 PUSH4 0x97DB285F EQ PUSH2 0x1E3 JUMPI DUP1 PUSH4 0xC3DE0CC4 EQ PUSH2 0x1EB JUMPI DUP1 PUSH4 0xC3F45387 EQ PUSH2 0x1F3 JUMPI DUP1 PUSH4 0xCD6DC687 EQ PUSH2 0x1FB JUMPI PUSH2 0x10B JUMP JUMPDEST DUP1 PUSH4 0x3A7481FA GT PUSH2 0xDE JUMPI DUP1 PUSH4 0x3A7481FA EQ PUSH2 0x187 JUMPI DUP1 PUSH4 0x72EB05B9 EQ PUSH2 0x18F JUMPI DUP1 PUSH4 0x7922EEF8 EQ PUSH2 0x1B5 JUMPI DUP1 PUSH4 0x89CC75BE EQ PUSH2 0x1BD JUMPI PUSH2 0x10B JUMP JUMPDEST DUP1 PUSH4 0x16AC262 EQ PUSH2 0x110 JUMPI DUP1 PUSH4 0x1BB7AB18 EQ PUSH2 0x134 JUMPI DUP1 PUSH4 0x1FE4A686 EQ PUSH2 0x160 JUMPI DUP1 PUSH4 0x2E0F2CE1 EQ PUSH2 0x168 JUMPI JUMPDEST PUSH1 0x0 DUP1 REVERT JUMPDEST PUSH2 0x118 PUSH2 0x2C9 JUMP JUMPDEST PUSH1 0x40 DUP1 MLOAD PUSH1 0x1 PUSH1 0x1 PUSH1 0xA0 SHL SUB SWAP1 SWAP3 AND DUP3 MSTORE MLOAD SWAP1 DUP2 SWAP1 SUB PUSH1 0x20 ADD SWAP1 RETURN JUMPDEST PUSH2 0x118 PUSH1 0x4 DUP1 CALLDATASIZE SUB PUSH1 0x40 DUP2 LT ISZERO PUSH2 0x14A JUMPI PUSH1 0x0 DUP1 REVERT JUMPDEST POP PUSH1 0x1 PUSH1 0x1 PUSH1 0xA0 SHL SUB DUP2 CALLDATALOAD AND SWAP1 PUSH1 0x20 ADD CALLDATALOAD PUSH2 0x2D8 JUMP JUMPDEST PUSH2 0x118 PUSH2 0x3A8 JUMP JUMPDEST PUSH2 0x185 PUSH1 0x4 DUP1 CALLDATASIZE SUB PUSH1 0x20 DUP2 LT ISZERO PUSH2 0x17E JUMPI PUSH1 0x0 DUP1 REVERT JUMPDEST POP CALLDATALOAD PUSH2 0x3BC JUMP JUMPDEST STOP JUMPDEST PUSH2 0x185 PUSH2 0x46F JUMP JUMPDEST PUSH2 0x185 PUSH1 0x4 DUP1 CALLDATASIZE SUB PUSH1 0x20 DUP2 LT ISZERO PUSH2 0x1A5 JUMPI PUSH1 0x0 DUP1 REVERT JUMPDEST POP CALLDATALOAD PUSH1 0x1 PUSH1 0x1 PUSH1 0xA0 SHL SUB AND PUSH2 0x4AA JUMP JUMPDEST PUSH2 0x118 PUSH2 0x536 JUMP JUMPDEST PUSH2 0x185 PUSH1 0x4 DUP1 CALLDATASIZE SUB PUSH1 0x20 DUP2 LT ISZERO PUSH2 0x1D3 JUMPI PUSH1 0x0 DUP1 REVERT JUMPDEST POP CALLDATALOAD PUSH1 0x1 PUSH1 0x1 PUSH1 0xA0 SHL SUB AND PUSH2 0x545 JUMP JUMPDEST PUSH2 0x118 PUSH2 0x57E JUMP JUMPDEST PUSH2 0x118 PUSH2 0x58D JUMP JUMPDEST PUSH2 0x185 PUSH2 0x59C JUMP JUMPDEST PUSH2 0x185 PUSH1 0x4 DUP1 CALLDATASIZE SUB PUSH1 0x40 DUP2 LT ISZERO PUSH2 0x211 JUMPI PUSH1 0x0 DUP1 REVERT JUMPDEST POP PUSH1 0x1 PUSH1 0x1 PUSH1 0xA0 SHL SUB DUP2 CALLDATALOAD AND SWAP1 PUSH1 0x20 ADD CALLDATALOAD PUSH2 0x5DE JUMP JUMPDEST PUSH2 0x185 PUSH1 0x4 DUP1 CALLDATASIZE SUB PUSH1 0x20 DUP2 LT ISZERO PUSH2 0x23D JUMPI PUSH1 0x0 DUP1 REVERT JUMPDEST POP CALLDATALOAD PUSH1 0x1 PUSH1 0x1 PUSH1 0xA0 SHL SUB AND PUSH2 0x71F JUMP JUMPDEST PUSH2 0x185 PUSH1 0x4 DUP1 CALLDATASIZE SUB PUSH1 0x60 DUP2 LT ISZERO PUSH2 0x263 JUMPI PUSH1 0x0 DUP1 REVERT JUMPDEST POP PUSH1 0x1 PUSH1 0x1 PUSH1 0xA0 SHL SUB DUP2 CALLDATALOAD DUP2 AND SWAP2 PUSH1 0x20 DUP2 ADD CALLDATALOAD SWAP2 PUSH1 0x40 SWAP1 SWAP2 ADD CALLDATALOAD AND PUSH2 0x7BA JUMP JUMPDEST PUSH2 0x185 PUSH1 0x4 DUP1 CALLDATASIZE SUB PUSH1 0x60 DUP2 LT ISZERO PUSH2 0x299 JUMPI PUSH1 0x0 DUP1 REVERT JUMPDEST POP PUSH1 0x1 PUSH1 0x1 PUSH1 0xA0 SHL SUB DUP2 CALLDATALOAD DUP2 AND SWAP2 PUSH1 0x20 DUP2 ADD CALLDATALOAD SWAP2 PUSH1 0x40 SWAP1 SWAP2 ADD CALLDATALOAD AND PUSH2 0x873 JUMP JUMPDEST PUSH2 0x118 PUSH2 0x96B JUMP JUMPDEST PUSH2 0x118 PUSH2 0x97A JUMP JUMPDEST PUSH1 0x5 SLOAD PUSH1 0x1 PUSH1 0x1 PUSH1 0xA0 SHL SUB AND DUP2 JUMP JUMPDEST PUSH1 0x0 DUP1 SLOAD PUSH1 0xFF AND PUSH2 0x2E8 JUMPI PUSH1 0x0 DUP1 REVERT JUMPDEST PUSH1 0x40 MLOAD PUSH20 0x3D602D80600A3D3981F3363D3D373D3D3D363D73 PUSH1 0x60 SHL DUP2 MSTORE ADDRESS PUSH1 0x60 SHL PUSH1 0x14 DUP3 ADD DUP2 SWAP1 MSTORE PUSH15 0x5AF43D82803E903D91602B57FD5BF3 PUSH1 0x88 SHL PUSH1 0x28 DUP4 ADD MSTORE SWAP1 PUSH1 0x37 DUP2 PUSH1 0x0 CREATE SWAP3 POP POP DUP2 PUSH1 0x1 PUSH1 0x1 PUSH1 0xA0 SHL SUB AND PUSH4 0xCD6DC687 DUP6 DUP6 PUSH1 0x40 MLOAD DUP4 PUSH4 0xFFFFFFFF AND PUSH1 0xE0 SHL DUP2 MSTORE PUSH1 0x4 ADD DUP1 DUP4 PUSH1 0x1 PUSH1 0x1 PUSH1 0xA0 SHL SUB AND DUP2 MSTORE PUSH1 0x20 ADD DUP3 DUP2 MSTORE PUSH1 0x20 ADD SWAP3 POP POP POP PUSH1 0x0 PUSH1 0x40 MLOAD DUP1 DUP4 SUB DUP2 PUSH1 0x0 DUP8 DUP1 EXTCODESIZE ISZERO DUP1 ISZERO PUSH2 0x389 JUMPI PUSH1 0x0 DUP1 REVERT JUMPDEST POP GAS CALL ISZERO DUP1 ISZERO PUSH2 0x39D JUMPI RETURNDATASIZE PUSH1 0x0 DUP1 RETURNDATACOPY RETURNDATASIZE PUSH1 0x0 REVERT JUMPDEST POP POP POP POP POP SWAP3 SWAP2 POP POP JUMP JUMPDEST PUSH1 0x0 SLOAD PUSH2 0x100 SWAP1 DIV PUSH1 0x1 PUSH1 0x1 PUSH1 0xA0 SHL SUB AND DUP2 JUMP JUMPDEST PUSH1 0x2 SLOAD PUSH1 0x1 PUSH1 0x1 PUSH1 0xA0 SHL SUB AND CALLER EQ PUSH2 0x3D3 JUMPI PUSH1 0x0 DUP1 REVERT JUMPDEST TIMESTAMP DUP2 GT PUSH2 0x41B JUMPI PUSH1 0x40 DUP1 MLOAD PUSH3 0x461BCD PUSH1 0xE5 SHL DUP2 MSTORE PUSH1 0x20 PUSH1 0x4 DUP3 ADD MSTORE PUSH1 0x11 PUSH1 0x24 DUP3 ADD MSTORE PUSH17 0x6D75737420626520696E20667574757265 PUSH1 0x78 SHL PUSH1 0x44 DUP3 ADD MSTORE SWAP1 MLOAD SWAP1 DUP2 SWAP1 SUB PUSH1 0x64 ADD SWAP1 REVERT JUMPDEST PUSH1 0x6 SLOAD DUP2 LT PUSH2 0x46A JUMPI PUSH1 0x40 DUP1 MLOAD PUSH3 0x461BCD PUSH1 0xE5 SHL DUP2 MSTORE PUSH1 0x20 PUSH1 0x4 DUP3 ADD MSTORE PUSH1 0x16 PUSH1 0x24 DUP3 ADD MSTORE PUSH22 0x1B5D5CDD08189948185B881A5B5C1C9BDD995B595B9D PUSH1 0x52 SHL PUSH1 0x44 DUP3 ADD MSTORE SWAP1 MLOAD SWAP1 DUP2 SWAP1 SUB PUSH1 0x64 ADD SWAP1 REVERT JUMPDEST PUSH1 0x6 SSTORE JUMP JUMPDEST PUSH1 0x3 SLOAD PUSH1 0x1 PUSH1 0x1 PUSH1 0xA0 SHL SUB AND CALLER EQ PUSH2 0x486 JUMPI PUSH1 0x0 DUP1 REVERT JUMPDEST PUSH1 0x3 SLOAD PUSH1 0x2 DUP1 SLOAD PUSH1 0x1 PUSH1 0x1 PUSH1 0xA0 SHL SUB NOT AND PUSH1 0x1 PUSH1 0x1 PUSH1 0xA0 SHL SUB SWAP1 SWAP3 AND SWAP2 SWAP1 SWAP2 OR SWAP1 SSTORE JUMP JUMPDEST PUSH1 0x0 SLOAD PUSH2 0x100 SWAP1 DIV PUSH1 0x1 PUSH1 0x1 PUSH1 0xA0 SHL SUB AND CALLER EQ PUSH2 0x4C6 JUMPI PUSH1 0x0 DUP1 REVERT JUMPDEST PUSH1 0x1 PUSH1 0x1 PUSH1 0xA0 SHL SUB DUP2 AND PUSH2 0x514 JUMPI PUSH1 0x40 DUP1 MLOAD PUSH3 0x461BCD PUSH1 0xE5 SHL DUP2 MSTORE PUSH1 0x20 PUSH1 0x4 DUP3 ADD MSTORE PUSH1 0x10 PUSH1 0x24 DUP3 ADD MSTORE PUSH16 0x63616E742073657420746F207A65726F PUSH1 0x80 SHL PUSH1 0x44 DUP3 ADD MSTORE SWAP1 MLOAD SWAP1 DUP2 SWAP1 SUB PUSH1 0x64 ADD SWAP1 REVERT JUMPDEST PUSH1 0x1 DUP1 SLOAD PUSH1 0x1 PUSH1 0x1 PUSH1 0xA0 SHL SUB NOT AND PUSH1 0x1 PUSH1 0x1 PUSH1 0xA0 SHL SUB SWAP3 SWAP1 SWAP3 AND SWAP2 SWAP1 SWAP2 OR SWAP1 SSTORE JUMP JUMPDEST PUSH1 0x4 SLOAD PUSH1 0x1 PUSH1 0x1 PUSH1 0xA0 SHL SUB AND DUP2 JUMP JUMPDEST PUSH1 0x2 SLOAD PUSH1 0x1 PUSH1 0x1 PUSH1 0xA0 SHL SUB AND CALLER EQ PUSH2 0x55C JUMPI PUSH1 0x0 DUP1 REVERT JUMPDEST PUSH1 0x3 DUP1 SLOAD PUSH1 0x1 PUSH1 0x1 PUSH1 0xA0 SHL SUB NOT AND PUSH1 0x1 PUSH1 0x1 PUSH1 0xA0 SHL SUB SWAP3 SWAP1 SWAP3 AND SWAP2 SWAP1 SWAP2 OR SWAP1 SSTORE JUMP JUMPDEST PUSH1 0x2 SLOAD PUSH1 0x1 PUSH1 0x1 PUSH1 0xA0 SHL SUB AND DUP2 JUMP JUMPDEST PUSH1 0x1 SLOAD PUSH1 0x1 PUSH1 0x1 PUSH1 0xA0 SHL SUB AND DUP2 JUMP JUMPDEST PUSH1 0x1 SLOAD PUSH1 0x1 PUSH1 0x1 PUSH1 0xA0 SHL SUB AND CALLER EQ PUSH2 0x5B3 JUMPI PUSH1 0x0 DUP1 REVERT JUMPDEST PUSH1 0x1 SLOAD PUSH1 0x0 DUP1 SLOAD PUSH1 0x1 PUSH1 0x1 PUSH1 0xA0 SHL SUB SWAP1 SWAP3 AND PUSH2 0x100 MUL PUSH2 0x100 PUSH1 0x1 PUSH1 0xA8 SHL SUB NOT SWAP1 SWAP3 AND SWAP2 SWAP1 SWAP2 OR SWAP1 SSTORE JUMP JUMPDEST PUSH1 0x6 SLOAD ISZERO PUSH2 0x629 JUMPI PUSH1 0x40 DUP1 MLOAD PUSH3 0x461BCD PUSH1 0xE5 SHL DUP2 MSTORE PUSH1 0x20 PUSH1 0x4 DUP3 ADD MSTORE PUSH1 0x13 PUSH1 0x24 DUP3 ADD MSTORE PUSH19 0x185B1C9958591E48125B9A5D1A585B1A5CD959 PUSH1 0x6A SHL PUSH1 0x44 DUP3 ADD MSTORE SWAP1 MLOAD SWAP1 DUP2 SWAP1 SUB PUSH1 0x64 ADD SWAP1 REVERT JUMPDEST PUSH1 0x1 DUP1 SLOAD PUSH1 0x1 PUSH1 0x1 PUSH1 0xA0 SHL SUB NOT AND PUSH1 0x1 PUSH1 0x1 PUSH1 0xA0 SHL SUB DUP5 AND OR SWAP1 SSTORE PUSH2 0x65F PUSH3 0x278D00 PUSH2 0x659 TIMESTAMP PUSH4 0x784CE00 PUSH2 0x992 JUMP JUMPDEST SWAP1 PUSH2 0x992 JUMP JUMPDEST DUP2 GT ISZERO PUSH2 0x6A8 JUMPI PUSH1 0x40 DUP1 MLOAD PUSH3 0x461BCD PUSH1 0xE5 SHL DUP2 MSTORE PUSH1 0x20 PUSH1 0x4 DUP3 ADD MSTORE PUSH1 0x12 PUSH1 0x24 DUP3 ADD MSTORE PUSH18 0x5F72656C6561736554696D65203E20347931 PUSH1 0x70 SHL PUSH1 0x44 DUP3 ADD MSTORE SWAP1 MLOAD SWAP1 DUP2 SWAP1 SUB PUSH1 0x64 ADD SWAP1 REVERT JUMPDEST PUSH1 0x6 DUP2 SWAP1 SSTORE PUSH1 0x2 DUP1 SLOAD PUSH1 0x1 PUSH1 0x1 PUSH1 0xA0 SHL SUB NOT AND PUSH20 0xFEB4ACF3DF3CDEA7399794D0869EF76A6EFAFF52 OR SWAP1 SSTORE PUSH1 0x40 DUP1 MLOAD ADDRESS DUP2 MSTORE PUSH1 0x1 PUSH1 0x1 PUSH1 0xA0 SHL SUB DUP5 AND PUSH1 0x20 DUP3 ADD MSTORE DUP1 DUP3 ADD DUP4 SWAP1 MSTORE SWAP1 MLOAD PUSH32 0xCD6DC6798CC50EED3152AEBD1C00D3AE488E28B6CE7CA31A2CAF24EEC72C692E SWAP2 DUP2 SWAP1 SUB PUSH1 0x60 ADD SWAP1 LOG1 POP POP JUMP JUMPDEST PUSH1 0x2 SLOAD PUSH1 0x1 PUSH1 0x1 PUSH1 0xA0 SHL SUB AND CALLER EQ ISZERO PUSH2 0x76B JUMPI PUSH1 0x5 DUP1 SLOAD PUSH1 0x1 PUSH1 0x1 PUSH1 0xA0 SHL SUB NOT AND PUSH1 0x1 PUSH1 0x1 PUSH1 0xA0 SHL SUB DUP4 DUP2 AND SWAP2 DUP3 OR SWAP1 SWAP3 SSTORE PUSH1 0x4 SLOAD SWAP1 SWAP2 AND EQ ISZERO PUSH2 0x766 JUMPI PUSH2 0x766 DUP2 PUSH2 0x9F3 JUMP JUMPDEST PUSH2 0x7B7 JUMP JUMPDEST PUSH1 0x0 SLOAD PUSH2 0x100 SWAP1 DIV PUSH1 0x1 PUSH1 0x1 PUSH1 0xA0 SHL SUB AND CALLER EQ ISZERO PUSH2 0x7B7 JUMPI PUSH1 0x4 DUP1 SLOAD PUSH1 0x1 PUSH1 0x1 PUSH1 0xA0 SHL SUB NOT AND PUSH1 0x1 PUSH1 0x1 PUSH1 0xA0 SHL SUB DUP4 DUP2 AND SWAP2 DUP3 OR SWAP1 SWAP3 SSTORE PUSH1 0x5 SLOAD SWAP1 SWAP2 AND EQ ISZERO PUSH2 0x7B7 JUMPI PUSH2 0x7B7 DUP2 PUSH2 0x9F3 JUMP JUMPDEST POP JUMP JUMPDEST PUSH1 0x2 SLOAD PUSH1 0x1 PUSH1 0x1 PUSH1 0xA0 SHL SUB AND CALLER EQ PUSH2 0x806 JUMPI PUSH1 0x40 DUP1 MLOAD PUSH3 0x461BCD PUSH1 0xE5 SHL DUP2 MSTORE PUSH1 0x20 PUSH1 0x4 DUP3 ADD MSTORE PUSH1 0xA PUSH1 0x24 DUP3 ADD MSTORE PUSH10 0x7963686164206F6E6C79 PUSH1 0xB0 SHL PUSH1 0x44 DUP3 ADD MSTORE SWAP1 MLOAD SWAP1 DUP2 SWAP1 SUB PUSH1 0x64 ADD SWAP1 REVERT JUMPDEST PUSH1 0x6 SLOAD TIMESTAMP SWAP1 PUSH2 0x819 SWAP1 PUSH4 0x784CE00 PUSH2 0x992 JUMP JUMPDEST LT ISZERO PUSH2 0x863 JUMPI PUSH1 0x40 DUP1 MLOAD PUSH3 0x461BCD PUSH1 0xE5 SHL DUP2 MSTORE PUSH1 0x20 PUSH1 0x4 DUP3 ADD MSTORE PUSH1 0x14 PUSH1 0x24 DUP3 ADD MSTORE PUSH20 0x32B9B1B937BB9015901A3C903737BA1037BB32B9 PUSH1 0x61 SHL PUSH1 0x44 DUP3 ADD MSTORE SWAP1 MLOAD SWAP1 DUP2 SWAP1 SUB PUSH1 0x64 ADD SWAP1 REVERT JUMPDEST PUSH2 0x86E DUP4 DUP4 DUP4 PUSH2 0xB67 JUMP JUMPDEST POP POP POP JUMP JUMPDEST PUSH1 0x0 SLOAD PUSH2 0x100 SWAP1 DIV PUSH1 0x1 PUSH1 0x1 PUSH1 0xA0 SHL SUB AND CALLER EQ DUP1 PUSH2 0x8B4 JUMPI POP PUSH1 0x0 SLOAD PUSH2 0x100 SWAP1 DIV PUSH1 0x1 PUSH1 0x1 PUSH1 0xA0 SHL SUB AND ISZERO DUP1 ISZERO PUSH2 0x8B4 JUMPI POP PUSH1 0x2 SLOAD PUSH1 0x1 PUSH1 0x1 PUSH1 0xA0 SHL SUB AND CALLER EQ JUMPDEST PUSH2 0x8F7 JUMPI PUSH1 0x40 DUP1 MLOAD PUSH3 0x461BCD PUSH1 0xE5 SHL DUP2 MSTORE PUSH1 0x20 PUSH1 0x4 DUP3 ADD MSTORE PUSH1 0xF PUSH1 0x24 DUP3 ADD MSTORE PUSH15 0x1BDB9B1E481CDD1C985D1959DA5CDD PUSH1 0x8A SHL PUSH1 0x44 DUP3 ADD MSTORE SWAP1 MLOAD SWAP1 DUP2 SWAP1 SUB PUSH1 0x64 ADD SWAP1 REVERT JUMPDEST PUSH1 0x1 PUSH1 0x1 PUSH1 0xA0 SHL SUB DUP4 AND PUSH20 0xBC529C00C6401AEF6D220BE8C6EA1667F6AD93E EQ ISZERO PUSH2 0x863 JUMPI TIMESTAMP PUSH1 0x6 SLOAD LT PUSH2 0x863 JUMPI PUSH1 0x40 DUP1 MLOAD PUSH3 0x461BCD PUSH1 0xE5 SHL DUP2 MSTORE PUSH1 0x20 PUSH1 0x4 DUP3 ADD MSTORE PUSH1 0x16 PUSH1 0x24 DUP3 ADD MSTORE PUSH22 0x32B9B1B937BB903832B934B7B2103737BA1037BB32B9 PUSH1 0x51 SHL PUSH1 0x44 DUP3 ADD MSTORE SWAP1 MLOAD SWAP1 DUP2 SWAP1 SUB PUSH1 0x64 ADD SWAP1 REVERT JUMPDEST PUSH1 0x3 SLOAD PUSH1 0x1 PUSH1 0x1 PUSH1 0xA0 SHL SUB AND DUP2 JUMP JUMPDEST PUSH20 0xBC529C00C6401AEF6D220BE8C6EA1667F6AD93E DUP2 JUMP JUMPDEST PUSH1 0x0 DUP3 DUP3 ADD DUP4 DUP2 LT ISZERO PUSH2 0x9EC JUMPI PUSH1 0x40 DUP1 MLOAD PUSH3 0x461BCD PUSH1 0xE5 SHL DUP2 MSTORE PUSH1 0x20 PUSH1 0x4 DUP3 ADD MSTORE PUSH1 0x1B PUSH1 0x24 DUP3 ADD MSTORE PUSH32 0x536166654D6174683A206164646974696F6E206F766572666C6F770000000000 PUSH1 0x44 DUP3 ADD MSTORE SWAP1 MLOAD SWAP1 DUP2 SWAP1 SUB PUSH1 0x64 ADD SWAP1 REVERT JUMPDEST SWAP4 SWAP3 POP POP POP JUMP JUMPDEST PUSH1 0x40 DUP1 MLOAD PUSH4 0x70A08231 PUSH1 0xE0 SHL DUP2 MSTORE ADDRESS PUSH1 0x4 DUP3 ADD MSTORE SWAP1 MLOAD PUSH1 0x0 SWAP2 PUSH20 0xBC529C00C6401AEF6D220BE8C6EA1667F6AD93E SWAP2 PUSH4 0x70A08231 SWAP2 PUSH1 0x24 DUP1 DUP3 ADD SWAP3 PUSH1 0x20 SWAP3 SWAP1 SWAP2 SWAP1 DUP3 SWAP1 SUB ADD DUP2 DUP7 DUP1 EXTCODESIZE ISZERO DUP1 ISZERO PUSH2 0xA48 JUMPI PUSH1 0x0 DUP1 REVERT JUMPDEST POP GAS STATICCALL ISZERO DUP1 ISZERO PUSH2 0xA5C JUMPI RETURNDATASIZE PUSH1 0x0 DUP1 RETURNDATACOPY RETURNDATASIZE PUSH1 0x0 REVERT JUMPDEST POP POP POP POP PUSH1 0x40 MLOAD RETURNDATASIZE PUSH1 0x20 DUP2 LT ISZERO PUSH2 0xA72 JUMPI PUSH1 0x0 DUP1 REVERT JUMPDEST POP MLOAD PUSH1 0x40 DUP1 MLOAD PUSH4 0xA9059CBB PUSH1 0xE0 SHL DUP2 MSTORE PUSH1 0x1 PUSH1 0x1 PUSH1 0xA0 SHL SUB DUP6 AND PUSH1 0x4 DUP3 ADD MSTORE PUSH1 0x24 DUP2 ADD DUP4 SWAP1 MSTORE SWAP1 MLOAD SWAP2 SWAP3 POP PUSH20 0xBC529C00C6401AEF6D220BE8C6EA1667F6AD93E SWAP2 PUSH4 0xA9059CBB SWAP2 PUSH1 0x44 DUP1 DUP3 ADD SWAP3 PUSH1 0x20 SWAP3 SWAP1 SWAP2 SWAP1 DUP3 SWAP1 SUB ADD DUP2 PUSH1 0x0 DUP8 DUP1 EXTCODESIZE ISZERO DUP1 ISZERO PUSH2 0xADB JUMPI PUSH1 0x0 DUP1 REVERT JUMPDEST POP GAS CALL ISZERO DUP1 ISZERO PUSH2 0xAEF JUMPI RETURNDATASIZE PUSH1 0x0 DUP1 RETURNDATACOPY RETURNDATASIZE PUSH1 0x0 REVERT JUMPDEST POP POP POP POP PUSH1 0x40 MLOAD RETURNDATASIZE PUSH1 0x20 DUP2 LT ISZERO PUSH2 0xB05 JUMPI PUSH1 0x0 DUP1 REVERT JUMPDEST POP POP PUSH1 0x40 DUP1 MLOAD PUSH20 0xBC529C00C6401AEF6D220BE8C6EA1667F6AD93E DUP2 MSTORE PUSH1 0x20 DUP2 ADD DUP4 SWAP1 MSTORE PUSH1 0x1 PUSH1 0x1 PUSH1 0xA0 SHL SUB DUP5 AND DUP2 DUP4 ADD MSTORE SWAP1 MLOAD PUSH32 0xBB3F74F3539EA7725781FF6810125A75C183F5C944318FC94873D1324F0482AE SWAP2 DUP2 SWAP1 SUB PUSH1 0x60 ADD SWAP1 LOG1 POP POP JUMP JUMPDEST PUSH1 0x40 DUP1 MLOAD PUSH1 0x1 PUSH1 0x1 PUSH1 0xA0 SHL SUB DUP1 DUP7 AND DUP3 MSTORE PUSH1 0x20 DUP3 ADD DUP6 SWAP1 MSTORE DUP4 AND DUP2 DUP4 ADD MSTORE SWAP1 MLOAD PUSH32 0xBB3F74F3539EA7725781FF6810125A75C183F5C944318FC94873D1324F0482AE SWAP2 DUP2 SWAP1 SUB PUSH1 0x60 ADD SWAP1 LOG1 PUSH2 0x86E PUSH1 0x1 PUSH1 0x1 PUSH1 0xA0 SHL SUB DUP5 AND DUP3 DUP5 PUSH1 0x40 DUP1 MLOAD PUSH1 0x1 PUSH1 0x1 PUSH1 0xA0 SHL SUB DUP5 AND PUSH1 0x24 DUP3 ADD MSTORE PUSH1 0x44 DUP1 DUP3 ADD DUP5 SWAP1 MSTORE DUP3 MLOAD DUP1 DUP4 SUB SWAP1 SWAP2 ADD DUP2 MSTORE PUSH1 0x64 SWAP1 SWAP2 ADD SWAP1 SWAP2 MSTORE PUSH1 0x20 DUP2 ADD DUP1 MLOAD PUSH1 0x1 PUSH1 0x1 PUSH1 0xE0 SHL SUB AND PUSH4 0xA9059CBB PUSH1 0xE0 SHL OR SWAP1 MSTORE PUSH2 0x86E SWAP1 DUP5 SWAP1 PUSH1 0x60 PUSH2 0xC62 DUP3 PUSH1 0x40 MLOAD DUP1 PUSH1 0x40 ADD PUSH1 0x40 MSTORE DUP1 PUSH1 0x20 DUP2 MSTORE PUSH1 0x20 ADD PUSH32 0x5361666545524332303A206C6F772D6C6576656C2063616C6C206661696C6564 DUP2 MSTORE POP DUP6 PUSH1 0x1 PUSH1 0x1 PUSH1 0xA0 SHL SUB AND PUSH2 0xCBE SWAP1 SWAP3 SWAP2 SWAP1 PUSH4 0xFFFFFFFF AND JUMP JUMPDEST DUP1 MLOAD SWAP1 SWAP2 POP ISZERO PUSH2 0x86E JUMPI DUP1 DUP1 PUSH1 0x20 ADD SWAP1 MLOAD PUSH1 0x20 DUP2 LT ISZERO PUSH2 0xC81 JUMPI PUSH1 0x0 DUP1 REVERT JUMPDEST POP MLOAD PUSH2 0x86E JUMPI PUSH1 0x40 MLOAD PUSH3 0x461BCD PUSH1 0xE5 SHL DUP2 MSTORE PUSH1 0x4 ADD DUP1 DUP1 PUSH1 0x20 ADD DUP3 DUP2 SUB DUP3 MSTORE PUSH1 0x2A DUP2 MSTORE PUSH1 0x20 ADD DUP1 PUSH2 0xEBA PUSH1 0x2A SWAP2 CODECOPY PUSH1 0x40 ADD SWAP2 POP POP PUSH1 0x40 MLOAD DUP1 SWAP2 SUB SWAP1 REVERT JUMPDEST PUSH1 0x60 PUSH2 0xCCD DUP5 DUP5 PUSH1 0x0 DUP6 PUSH2 0xCD5 JUMP JUMPDEST SWAP5 SWAP4 POP POP POP POP JUMP JUMPDEST PUSH1 0x60 PUSH2 0xCE0 DUP6 PUSH2 0xE80 JUMP JUMPDEST PUSH2 0xD31 JUMPI PUSH1 0x40 DUP1 MLOAD PUSH3 0x461BCD PUSH1 0xE5 SHL DUP2 MSTORE PUSH1 0x20 PUSH1 0x4 DUP3 ADD MSTORE PUSH1 0x1D PUSH1 0x24 DUP3 ADD MSTORE PUSH32 0x416464726573733A2063616C6C20746F206E6F6E2D636F6E7472616374000000 PUSH1 0x44 DUP3 ADD MSTORE SWAP1 MLOAD SWAP1 DUP2 SWAP1 SUB PUSH1 0x64 ADD SWAP1 REVERT JUMPDEST PUSH1 0x0 PUSH1 0x60 DUP7 PUSH1 0x1 PUSH1 0x1 PUSH1 0xA0 SHL SUB AND DUP6 DUP8 PUSH1 0x40 MLOAD DUP1 DUP3 DUP1 MLOAD SWAP1 PUSH1 0x20 ADD SWAP1 DUP1 DUP4 DUP4 JUMPDEST PUSH1 0x20 DUP4 LT PUSH2 0xD70 JUMPI DUP1 MLOAD DUP3 MSTORE PUSH1 0x1F NOT SWAP1 SWAP3 ADD SWAP2 PUSH1 0x20 SWAP2 DUP3 ADD SWAP2 ADD PUSH2 0xD51 JUMP JUMPDEST PUSH1 0x1 DUP4 PUSH1 0x20 SUB PUSH2 0x100 EXP SUB DUP1 NOT DUP3 MLOAD AND DUP2 DUP5 MLOAD AND DUP1 DUP3 OR DUP6 MSTORE POP POP POP POP POP POP SWAP1 POP ADD SWAP2 POP POP PUSH1 0x0 PUSH1 0x40 MLOAD DUP1 DUP4 SUB DUP2 DUP6 DUP8 GAS CALL SWAP3 POP POP POP RETURNDATASIZE DUP1 PUSH1 0x0 DUP2 EQ PUSH2 0xDD2 JUMPI PUSH1 0x40 MLOAD SWAP2 POP PUSH1 0x1F NOT PUSH1 0x3F RETURNDATASIZE ADD AND DUP3 ADD PUSH1 0x40 MSTORE RETURNDATASIZE DUP3 MSTORE RETURNDATASIZE PUSH1 0x0 PUSH1 0x20 DUP5 ADD RETURNDATACOPY PUSH2 0xDD7 JUMP JUMPDEST PUSH1 0x60 SWAP2 POP JUMPDEST POP SWAP2 POP SWAP2 POP DUP2 ISZERO PUSH2 0xDEB JUMPI SWAP2 POP PUSH2 0xCCD SWAP1 POP JUMP JUMPDEST DUP1 MLOAD ISZERO PUSH2 0xDFB JUMPI DUP1 MLOAD DUP1 DUP3 PUSH1 0x20 ADD REVERT JUMPDEST DUP4 PUSH1 0x40 MLOAD PUSH3 0x461BCD PUSH1 0xE5 SHL DUP2 MSTORE PUSH1 0x4 ADD DUP1 DUP1 PUSH1 0x20 ADD DUP3 DUP2 SUB DUP3 MSTORE DUP4 DUP2 DUP2 MLOAD DUP2 MSTORE PUSH1 0x20 ADD SWAP2 POP DUP1 MLOAD SWAP1 PUSH1 0x20 ADD SWAP1 DUP1 DUP4 DUP4 PUSH1 0x0 JUMPDEST DUP4 DUP2 LT ISZERO PUSH2 0xE45 JUMPI DUP2 DUP2 ADD MLOAD DUP4 DUP3 ADD MSTORE PUSH1 0x20 ADD PUSH2 0xE2D JUMP JUMPDEST POP POP POP POP SWAP1 POP SWAP1 DUP2 ADD SWAP1 PUSH1 0x1F AND DUP1 ISZERO PUSH2 0xE72 JUMPI DUP1 DUP3 SUB DUP1 MLOAD PUSH1 0x1 DUP4 PUSH1 0x20 SUB PUSH2 0x100 EXP SUB NOT AND DUP2 MSTORE PUSH1 0x20 ADD SWAP2 POP JUMPDEST POP SWAP3 POP POP POP PUSH1 0x40 MLOAD DUP1 SWAP2 SUB SWAP1 REVERT JUMPDEST PUSH1 0x0 DUP2 EXTCODEHASH PUSH32 0xC5D2460186F7233C927E7DB2DCC703C0E500B653CA82273B7BFAD8045D85A470 DUP2 DUP2 EQ DUP1 ISZERO SWAP1 PUSH2 0xCCD JUMPI POP POP ISZERO ISZERO SWAP3 SWAP2 POP POP JUMP INVALID MSTORE8 PUSH2 0x6665 GASLIMIT MSTORE NUMBER ORIGIN ADDRESS GASPRICE KECCAK256 GASLIMIT MSTORE NUMBER ORIGIN ADDRESS KECCAK256 PUSH16 0x7065726174696F6E20646964206E6F74 KECCAK256 PUSH20 0x756363656564A2646970667358221220D40565B6 0xE3 0x27 0xE5 DUP10 0x22 0xCD SSTORE PUSH3 0xDF4055 0xB7 DUP14 0xB9 0xED CHAINID DUP15 PUSH17 0x57FEA4AF19DC0187444D64736F6C634300 MOD 0xC STOP CALLER ",
  "sha1": "0153a247271f3e56e46c154f8c6214474e4de3ce",
  "source": "// SPDX-License-Identifier: AGPL-3.0\npragma solidity ^0.6.12;\n\nimport \"@openzeppelin/contracts/token/ERC20/IERC20.sol\";\nimport \"@openzeppelin/contracts/math/SafeMath.sol\";\nimport \"@openzeppelin/contracts/utils/Address.sol\";\nimport \"@openzeppelin/contracts/token/ERC20/SafeERC20.sol\";\n\ncontract StrategistEscrow {\n    using Address for address;\n    using SafeMath for uint256;\n    using SafeERC20 for IERC20;\n\n    //constant stays through clone\n    IERC20 public constant yfi =\n        IERC20(0x0bc529c00C6401aEF6D220BE8C6Ea1667F6Ad93e);\n    uint256 internal constant ONEMONTH = 60 * 60 * 24 * 30;\n    uint256 internal constant FOURYEARS = 60 * 60 * 24 * 365 * 4;\n\n    //non constant doesnt. so will be false on all but original\n    bool internal isOriginal = true;\n\n    event EscrowSetup(\n        address escrowAddress,\n        address strategist,\n        uint256 releaseTime\n    );\n\n    event Swept(address token, uint256 amount, address target);\n\n    address public strategist;\n    address public pendingStrategist;\n    address public ychad;\n    address public pendingYchad;\n\n    address public migrateTargetStrategist;\n    address public migrateTargetYchad;\n\n    uint256 releaseTime;\n\n    constructor(address _strategist, uint256 _releaseTime) public {\n        initialize(_strategist, _releaseTime);\n    }\n\n    function cloneEscrow(address _strategist, uint256 _releaseTime)\n        external\n        returns (address newEscrow)\n    {\n        require(isOriginal);\n        // Copied from https://github.com/optionality/clone-factory/blob/master/contracts/CloneFactory.sol\n        bytes20 addressBytes = bytes20(address(this));\n        assembly {\n            // EIP-1167 bytecode\n            let clone_code := mload(0x40)\n            mstore(\n                clone_code,\n                0x3d602d80600a3d3981f3363d3d373d3d3d363d73000000000000000000000000\n            )\n            mstore(add(clone_code, 0x14), addressBytes)\n            mstore(\n                add(clone_code, 0x28),\n                0x5af43d82803e903d91602b57fd5bf30000000000000000000000000000000000\n            )\n            newEscrow := create(0, clone_code, 0x37)\n        }\n\n        StrategistEscrow(newEscrow).initialize(_strategist, _releaseTime);\n    }\n\n    function initialize(address _strategist, uint256 _releaseTime) public {\n        require(releaseTime == 0, \"already Initialised\");\n\n        //note: strategist needs to accept. Important or else daddy can sweep\n        pendingStrategist = _strategist;\n        require(\n            _releaseTime <= block.timestamp.add(FOURYEARS).add(ONEMONTH),\n            \"_releaseTime > 4y1\"\n        );\n        releaseTime = _releaseTime;\n\n        ychad = 0xFEB4acf3df3cDEA7399794D0869ef76A6EfAff52;\n\n        emit EscrowSetup(address(this), _strategist, _releaseTime);\n    }\n\n    function changeStrategist(address _newStrategist) external {\n        require(strategist == msg.sender);\n        require(_newStrategist != address(0), \"cant set to zero\");\n        pendingStrategist = _newStrategist;\n    }\n\n    function acceptStrategist() external {\n        require(pendingStrategist == msg.sender);\n        strategist = pendingStrategist;\n    }\n\n    function changeYchad(address _newYchad) external {\n        require(ychad == msg.sender);\n        pendingYchad = _newYchad;\n    }\n\n    function acceptYchad() external {\n        require(pendingYchad == msg.sender);\n        ychad = pendingYchad;\n    }\n\n    //ychad can improve release time. must in future to prevenet gaming of sweepFromDeadStrategist\n    function changeReleaseTime(uint256 _newReleaseTime) external {\n        require(ychad == msg.sender);\n        require(_newReleaseTime > block.timestamp, \"must be in future\");\n        require(_newReleaseTime < releaseTime, \"must be an improvement\");\n        releaseTime = _newReleaseTime;\n    }\n\n    //if both strategist and ychad are in agreement, migrate.\n    function migrate(address target) public {\n        if (ychad == msg.sender) {\n            migrateTargetYchad = target;\n            if (migrateTargetStrategist == target) {\n                _migrate(target);\n            }\n        } else if (strategist == msg.sender) {\n            migrateTargetStrategist = target;\n            if (migrateTargetYchad == target) {\n                _migrate(target);\n            }\n        }\n    }\n\n    function _migrate(address target) internal {\n        uint256 yfiBalance = yfi.balanceOf(address(this));\n        yfi.transfer(target, yfiBalance);\n        Swept(address(yfi), yfiBalance, target);\n    }\n\n    function sweep(\n        address _token,\n        uint256 _amount,\n        address _target\n    ) external {\n        // if strategist hasnt been set then ychad can sweep. Backup incase strategist gets set to the wrong address\n        require(\n            strategist == msg.sender ||\n                (strategist == address(0) && ychad == msg.sender),\n            \"only strategist\"\n        );\n        if (_token == address(yfi)) {\n            require(releaseTime < block.timestamp, \"escrow period not over\");\n        }\n\n        _sweep(_token, _amount, _target);\n    }\n\n    // a backup function to reclaim yfi if the strategist hasnt claimed in a very long time.\n    // likely only could happen with lost keys or death\n    function sweepFromDeadStrategist(\n        address _token,\n        uint256 _amount,\n        address _target\n    ) external {\n        require(ychad == msg.sender, \"ychad only\");\n        require(\n            releaseTime.add(FOURYEARS) >= block.timestamp,\n            \"escrow + 4y not over\"\n        );\n        _sweep(_token, _amount, _target);\n    }\n\n    function _sweep(\n        address _token,\n        uint256 _amount,\n        address _target\n    ) internal {\n        emit Swept(_token, _amount, _target);\n        IERC20(_token).safeTransfer(_target, _amount);\n    }\n}\n",
  "sourcePath": "contracts/StrategistEscrow.sol",
  "type": "contract"
}